:020000040800F2
:100000000050002001860008950800089F0800089D
:10001000A5080008AB080008B108000800000000AF
:10002000000000000000000000000000B708000809
:10003000C308000800000000CF080008DB08000823
:100040004986000849860008498600084986000854
:100050004986000849860008498600084986000844
:100060004986000849860008498600084986000834
:100070004986000849860008498600084986000824
:100080004986000849860008498600084986000814
:10009000E9080008498600084986000849860008E2
:1000A00049860008FD0800084986000849860008BE
:1000B00049860008498600084986000849860008E4
:1000C00049860008498600084986000849860008D4
:1000D00049860008498600084986000849860008C4
:1000E000498600084986000849860008000000008B
:1000F0000000000000000000000000000000000000
:0C01000000000000000000005FF808F1A3
:10010C0010B5054C237833B9044B13B10448AFF345
:10011C0000800123237010BD7C0100200000000032
:10012C00A486000808B5034B1BB103490348AFF381
:10013C00008008BD0000000080010020A48600089B
:10014C0080B483B000AF00237B6007E0114A7B686A
:10015C00114942F823107B6801337B607B681F2BAD
:10016C00F4D100237B600DE00C4A7B680A4942F80D
:10017C0033100A4A7B68DB00134400225A607B6808
:10018C0001337B607B681F2BEED100BF0C37BD4663
:10019C0080BC704798010020AD01000814020020BB
:1001AC0080B400AF00BFBD4680BC704780B485B042
:1001BC0000AF78600023FB6072B671B608E0FB6894
:1001CC000133FB60FB681F2B02D162B661B60DE0F8
:1001DC00084AFB6852F82330074A9342EFD105498D
:1001EC00FB687A6841F8232062B661B61437BD46C5
:1001FC0080BC704798010020AD01000880B485B028
:10020C0000AF786039600023FB600023BB6072B6DE
:10021C0071B60023FB601EE0224AFB6852F83320C3
:10022C007B689A4208D11F4AFB68DB0013443A688A
:10023C005A6062B661B631E01A4AFB6852F8333044
:10024C00194A934204D1BB68002B01D1FB68BB60F7
:10025C00FB680133FB60FB681F2BDDD10023FB60C7
:10026C0017E0104AFB6852F833300F4A93420DD115
:10027C000C49FB687A6841F833200A4AFB68DB00BA
:10028C0013443A685A6062B661B607E0FB68013302
:10029C00FB60FB681F2BE4D162B661B61437BD4618
:1002AC0080BC704714020020AD01000880B582B0FC
:1002BC0000AF00237B60164B3B6072B671B6154BDA
:1002CC001B683B603B68124A934204D162B661B62C
:1002DC00FFF766FF18E000237B600BE07B680133BF
:1002EC000C4A52F823200B497B6841F823207B6889
:1002FC0001337B607B681E2BF0D1064B044A9A6756
:10030C0062B661B63B68984700BF0837BD4680BDF2
:10031C00AD0100089801002080B582B000AF72B624
:10032C0071B600237B602AE0194A7B6852F833309F
:10033C00184A93421FD0164A7B68DB0013445B6853
:10034C00012B0BD0124A7B68DB0013445B685A1EEE
:10035C000F497B68DB000B445A600DE00C4A7B684C
:10036C0052F833301846FFF721FF094A7B680949D8
:10037C0042F8331000E000BF7B6801337B607B6880
:10038C001F2BD1D162B661B600BF0837BD4680BD08
:10039C0014020020AD01000880B588B000AF07F151
:1003AC00100300221A605A609A60DA603F4A3F4B91
:1003BC009B6943F0100393613C4B9B6903F0100362
:1003CC00FB60FB68394A394B9B6943F0200393610E
:1003DC00364B9B6903F02003BB60BB68334A334B3D
:1003EC009B6943F004039361304B9B6903F0040356
:1003FC007B607B682D4A2D4B9B6943F0080393610E
:10040C002A4B9B6903F008033B603B6800224FF4C6
:10041C000051274800F03EFE00224FF44071254861
:10042C0000F038FE4FF400533B6101237B61002345
:10043C00BB610223FB6107F1100319461C4800F055
:10044C00CFFC4FF440433B6103237B6107F1100366
:10045C001946174800F0C4FC48F2FF433B610323E4
:10046C007B6107F110031946124800F0B9FC44F601
:10047C003F433B6103237B6107F1100319460E4890
:10048C0000F0AEFC4FF440733B6101237B61002311
:10049C00BB610223FB6107F110031946054800F00C
:1004AC009FFC00BF2037BD4680BD00BF001002403E
:1004BC000010014000080140000C014080B500AF65
:1004CC00124B134A1A60114B124A5A600F4B0022FE
:1004DC009A600E4B0022DA600C4B4FF480421A618A
:1004EC000A4B00225A61094B00229A61074B0022E9
:1004FC00DA61064B00221A62044800F0E3FD034661
:10050C00002B01D000F011F900BF80BD3005002098
:10051C0000540040A086010080B58AB000AF78601E
:10052C0007F1140300221A605A609A60DA607B6843
:10053C001B681D4A934232D11C4A1C4B9B6943F0E9
:10054C0008039361194B9B6903F008033B613B69FA
:10055C004FF440737B611223BB6103233B6207F1B1
:10056C0014031946124800F03BFC124B5B687B628B
:10057C007B6A43F0E0637B627B6A43F002037B623D
:10058C000C4A7B6A5360094A084BDB6943F400133D
:10059C00D361064BDB6903F40013FB60FB6800BFFF
:1005AC002837BD4680BD00BF0054004000100240FB
:1005BC00000C01400000014080B582B000AF7860B3
:1005CC007B681B68044A934201D1FFF7A5FE00BF6C
:1005DC000837BD4680BD00BF002C014080B500AF80
:1005EC0064210548FFF70AFE01224FF4005103482D
:1005FC0000F050FD00BF80BD0D060008001001404A
:10060C0080B500AF64210548FFF7F8FD00224FF4D8
:10061C000051034800F03EFD00BF80BDE905000815
:10062C000010014080B500AF00F06CFA00F020F82B
:10063C00FFF7B2FE00F0E2F9FFF740FF00F07AF8A6
:10064C0007F062FB00F064F9FFF77AFD064B1B68BC
:10065C006FF001021A61044803F018F90348FFF720
:10066C00A5FDFFF723FEFCE7DC050020E9050008EB
:10067C0080B594B000AF07F128032822002118465A
:10068C0008F002F807F1140300221A605A609A600D
:10069C00DA601A613B1D00221A605A609A60DA60B7
:1006AC000123BB624FF48033FB6200233B630123C5
:1006BC00BB6302237B644FF48033BB644FF4801321
:1006CC00FB6407F12803184602F016FB0346002BC7
:1006DC0001D000F02AF80F237B610223BB610023B9
:1006EC00FB614FF480633B6200237B6207F11403D0
:1006FC000121184602F080FD0346002B01D000F0CA
:10070C0014F810237B604FF480033B613B1D1846AB
:10071C0002F034FF0346002B01D000F006F802F083
:10072C0055FE00BF5037BD4680BD80B400AF72B6D9
:10073C00FEE7000080B500AF184B194A1A60174B42
:10074C004FF482725A60154B00229A60134B4FF48F
:10075C000062DA60114B00221A61104B00225A61C0
:10076C000E4B4FF400729A610C4B0022DA610B4B6A
:10077C0000221A62094B00225A62084B00229A622C
:10078C00064B0A22DA62054802F0AEFF0346002B44
:10079C0001D0FFF7CAFF00BF80BD00BF8405002059
:1007AC000038004080B588B000AF786007F11003C6
:1007BC0000221A605A609A60DA607B681B68164ADD
:1007CC00934224D1154A154BDB6943F48043D36122
:1007DC00124BDB6903F48043FB60FB680F4A0F4B41
:1007EC009B6943F0080393610C4B9B6903F008036E
:1007FC00BB60BB684FF430433B6102237B61032336
:10080C00FB6107F110031946054800F0E9FA00BF37
:10081C002037BD4680BD00BF0038004000100240AC
:10082C00000C014080B485B000AF154A144B9B6995
:10083C0043F001039361124B9B6903F00103BB600E
:10084C00BB680F4A0E4BDB6943F08053D3610C4BF2
:10085C00DB6903F080537B607B680A4B5B68FB6051
:10086C00FB6823F0E063FB60FB6843F00073FB6004
:10087C00044AFB68536000BF1437BD4680BC704708
:10088C00001002400000014080B500AF02F03EFEB7
:10089C00FEE780B400AFFEE780B400AFFEE780B4A3
:1008AC0000AFFEE780B400AFFEE780B400AF00BF3E
:1008BC00BD4680BC704780B400AF00BFBD4680BC55
:1008CC00704780B400AF00BFBD4680BC704780B598
:1008DC0000AF00F05DF900BF80BD000080B500AF37
:1008EC00024800F058FE00BF80BD00BF001300207E
:1008FC0080B500AF024803F01BF800BF80BD00BFFD
:10090C00DC05002080B400AF00BFBD4680BC704742
:10091C0080B586B000AF07F1080300221A605A6058
:10092C009A60DA603B4600221A605A601E4B1F4ADE
:10093C001A601D4B40F2CF225A601B4B00229A606A
:10094C00194B6322DA60184B00221A61164B0022F5
:10095C005A61154B00229A61134802F048FF034676
:10096C00002B01D0FFF7E1FE4FF48053BB6007F181
:10097C00080319460C4803F0E3F80346002B01D09A
:10098C00FFF7D3FE00233B6000237B603B461946F8
:10099C00054803F0A9FA0346002B01D0FFF7C5FE6A
:1009AC0000BF1837BD4680BDDC050020002C01407F
:1009BC0080B584B000AF78607B681B680D4A9342A9
:1009CC0013D10D4A0C4B9B6943F4006393610A4BA2
:1009DC009B6903F40063FB60FB6800220021192073
:1009EC0000F0C7F9192000F0E0F900BF1037BD4640
:1009FC0080BD00BF002C01400010024080B500AF4C
:100A0C00114B124A1A60104B4FF496425A600E4B1F
:100A1C0000229A600C4B0022DA600B4B00221A6108
:100A2C00094B0C225A61084B00229A61064B00229A
:100A3C00DA61054803F0C8FA0346002B01D0FFF732
:100A4C0074FE00BF80BD00BF2406002000380140AA
:100A5C0080B58AB000AF786007F1140300221A60E9
:100A6C005A609A60DA607B681B68224A93423DD1D7
:100A7C00214A214B9B6943F4804393611E4B9B6934
:100A8C0003F480433B613B691B4A1B4B9B6943F05E
:100A9C0008039361184B9B6903F00803FB60FB6828
:100AAC0040237B610223BB6103233B6207F11403E8
:100ABC001946124800F094F980237B610023BB6136
:100ACC000023FB6107F1140319460C4800F088F968
:100ADC000B4B5B687B627B6A43F0E0637B627B6AF7
:100AEC0043F004037B62064A7B6A536000BF2837DD
:100AFC00BD4680BD0038014000100240000C014092
:100B0C000000014080B500AF084A084B1B6843F059
:100B1C0010031360032000F021F9002000F008F806
:100B2C00FFF780FE0023184680BD00BF0020024066
:100B3C0080B582B000AF7860124B1A68124B1B78EC
:100B4C0019464FF47A73B3FBF1F3B2FBF3F3184687
:100B5C0000F039F90346002B01D001230EE07B682D
:100B6C000F2B0AD8002279684FF0FF3000F001F902
:100B7C00064A7B681360002300E0012318460837FF
:100B8C00BD4680BD000000200800002004000020AD
:100B9C0080B400AF054B1B781A46054B1B681344F9
:100BAC00034A136000BFBD4680BC7047080000209C
:100BBC006806002080B400AF024B1B681846BD4687
:100BCC0080BC70476806002080B485B000AF7860A8
:100BDC007B6803F00703FB600C4BDB68BB60BA68F7
:100BEC004FF6FF031340BB60FB681A02BB6813434C
:100BFC0043F0BF6343F40033BB60044ABB68D3606B
:100C0C0000BF1437BD4680BC704700BF00ED00E04C
:100C1C0080B400AF044BDB681B0A03F007031846D3
:100C2C00BD4680BC704700BF00ED00E080B483B0CF
:100C3C0000AF0346FB7197F90730002B0BDB08491B
:100C4C0097F907305B09FA7902F01F02012000FACC
:100C5C0002F241F8232000BF0C37BD4680BC704720
:100C6C0000E100E080B483B000AF03463960FB7153
:100C7C0097F90730002B0ADB0D4997F907303A68D2
:100C8C00D2B21201D2B20B4483F800230AE0094914
:100C9C00FB7903F00F03043B3A68D2B21201D2B2D3
:100CAC000B441A7600BF0C37BD4680BC704700BFA2
:100CBC0000E100E000ED00E080B489B000AFF86026
:100CCC00B9607A60FB6803F00703FB61FB69C3F151
:100CDC000703042B28BF0423BB61FB690433062BD9
:100CEC0002D9FB69033B00E000237B610122BB6955
:100CFC0002FA03F35A1EBB681A407B699A40012121
:100D0C007B6901FA03F3591E7B680B4013431846A9
:100D1C002437BD4680BC704780B582B000AF786088
:100D2C007B68013BB3F1807F01D301230FE00A4ABA
:100D3C007B68013B53600F214FF0FF30FFF792FFB0
:100D4C00054B00229A60044B07221A6000231846B8
:100D5C000837BD4680BD00BF10E000E080B582B012
:100D6C0000AF78607868FFF72FFF00BF0837BD46EB
:100D7C0080BD80B586B000AF0346B9607A60FB7366
:100D8C0000237B61FFF744FF78617A68B968786962
:100D9C00FFF792FF024697F90F3011461846FFF7FE
:100DAC0061FF00BF1837BD4680BD80B582B000AF73
:100DBC000346FB7197F907301846FFF737FF00BF62
:100DCC000837BD4680BD80B582B000AF78607868CA
:100DDC00FFF7A2FF034618460837BD4680BD00004A
:100DEC0080B48BB000AF7860396000237B62002345
:100DFC003B6227E101227B6A02FA03F3FB613B6849
:100E0C001A68FB691340BB61BA69FB699A4240F0EE
:100E1C0016813B685B68122B34D0122B0DD8022B39
:100E2C002BD0022B04D8002B31D0012B1CD048E046
:100E3C00032B43D0112B1BD043E0894A934226D07D
:100E4C00874A934206D8874A934220D0864A9342D7
:100E5C001DD036E0854A934219D0854A934216D06C
:100E6C00844A934213D02CE03B68DB683B6228E059
:100E7C003B68DB6804333B6223E03B68DB68083388
:100E8C003B621EE03B68DB680C333B6219E03B685D
:100E9C009B68002B02D104233B6212E03B689B68E9
:100EAC00012B05D108233B627B68FA691A6108E0C3
:100EBC0008233B627B68FA695A6102E000233B62BB
:100ECC0000BFBB69FF2B01D87B6801E07B68043352
:100EDC007B61BB69FF2B02D87B6A9B0002E07B6ABB
:100EEC00083B9B003B617B691A680F213B6901FA47
:100EFC0003F3DB431A40396A3B6901FA03F31A43E3
:100F0C007B691A603B685B6803F08053002B00F030
:100F1C009680594A584B9B6943F001039361564B99
:100F2C009B6903F00103BB60BB68544A7B6A9B0856
:100F3C00023352F82330FB607B6A03F003039B00FF
:100F4C000F2202FA03F3DB43FA681340FB607B6861
:100F5C004B4A934213D07B684A4A93420DD07B682C
:100F6C00494A934207D07B68484A934201D10323F4
:100F7C0006E0042304E0022302E0012300E0002346
:100F8C007A6A02F0030292009340FA681343FB6002
:100F9C003A497B6A9B080233FA6841F823203B6884
:100FAC005B6803F48033002B06D03949384B1A6840
:100FBC00BB6913430B6006E03549354B1A68BB69B6
:100FCC00DB4313400B603B685B6803F40033002B7E
:100FDC0006D02F492E4B5A68BB6913434B6006E071
:100FEC002B492B4B5A68BB69DB4313404B603B6866
:100FFC005B6803F48013002B06D02549244B9A68B8
:10100C00BB6913438B6006E02149214B9A68BB698D
:10101C00DB4313408B603B685B6803F40013002BCD
:10102C0006D01B491A4BDA68BB691343CB6006E048
:10103C001749174BDA68BB69DB431340CB607B6AFB
:10104C0001337B623B681A687B6A22FA03F3002B3C
:10105C007FF4D0AE00BF2C37BD4680BC704700BFBC
:10106C0000002110000011100000121000003110BF
:10107C00000032100000221000100240000001405D
:10108C0000080140000C0140001001400014014018
:10109C000004014080B483B000AF78600B467B80C5
:1010AC0013467B707B78002B03D07A887B681A619F
:1010BC0003E07B881A047B681A6100BF0C37BD46BD
:1010CC0080BC704790B585B000AF78607B68002B12
:1010DC0001D101231FE17B6893F83D30DBB2002B7B
:1010EC0006D17B68002283F83C207868FFF714FA5D
:1010FC007B68242283F83D207B681B687A68126821
:10110C00126822F001021A607B681B687A68126808
:10111C00126842F400421A607B681B687A68126895
:10112C00126822F400421A6002F0C8F9F8607B6879
:10113C005B687B4A934207D8FB687A4A934294BF18
:10114C0001230023DBB206E0FB68774A934294BF8D
:10115C0001230023DBB2002B01D00123DBE0FB6871
:10116C00724AA2FB03239B0CBB607B681B687A68EA
:10117C001268526822F03F01BA680A435A607B68D1
:10118C001A687B681B681B6A23F03F017B685B68ED
:10119C006348834202D8BB68013309E0BB684FF453
:1011AC00967000FB03F36248A0FB03039B09013319
:1011BC000B4313627B6818687B681B68DB6923F43C
:1011CC004F4222F0FF027B685B6855498B420DD879
:1011DC00FB68591E7B685B685B00B1FBF3F3013362
:1011EC00C3F30B03042B38BF04234FE07B689B68CD
:1011FC00002B11D1FB685C1E7B6859680B465B00A9
:10120C000B44B4FBF3F30133C3F30B03002B0CBF00
:10121C0001230023DBB212E0FB685C1E7B6859687B
:10122C000B469B000B4499000B44B4FBF3F30133C6
:10123C00C3F30B03002B0CBF01230023DBB2002BE9
:10124C0001D0012322E07B689B68002B0ED1FB6848
:10125C005C1E7B6859680B465B000B44B4FBF3F3D4
:10126C000133C3F30B0343F400430FE0FB685C1E34
:10127C007B6859680B469B000B4499000B44B4FBEC
:10128C00F3F30133C3F30B0343F440431343C36140
:10129C007B681B687A681268126822F0C0017A6851
:1012AC00D0697A68126A02430A431A607B681A682A
:1012BC007B681B689B6823F4034323F0FF03796866
:1012CC0008697968C96801430B4393607B681B68A4
:1012DC007A681268D26822F0FF017A6850697A68DD
:1012EC00926902430A43DA607B681B687A68126869
:1012FC00126842F001021A607B6800221A647B6853
:10130C00202283F83D207B6800221A637B68002230
:10131C0083F83E20002318461437BD4690BD00BF0D
:10132C00A08601007F841E00FF083D0083DE1B4366
:10133C00D34D6210F0B58BB006AF78607B68002B94
:10134C0001D10123FDE07B6893F8A932DBB2002BBD
:10135C0006D17B68002283F8A822786806F0A0FEEC
:10136C007B68032283F8A9227B681B68184602F06D
:10137C002DFF7B681B683B607E686D4606F1100490
:10138C000FCC0FC523682B60331D0ECB386802F0D1
:10139C00F7FE0346002B05D07B68022283F8A922B6
:1013AC000123CEE07B681B680021184602F028FF61
:1013BC000023FB734CE0FB7B79685A1C13469B00A3
:1013CC001344DB000B44013301221A70FB7B796858
:1013DC005A1C13469B001344DB000B44FA7B1A7017
:1013EC00FA7BFB7B98B2796813469B001344DB00B5
:1013FC000B44363302461A80FB7B79685A1C134621
:10140C009B001344DB000B44033300221A70FA7B5D
:10141C00796813469B001344DB000B4438330022DD
:10142C001A60FA7B796813469B001344DB000B446B
:10143C003C3300221A60FA7B796813469B001344F4
:10144C00DB000B44403300221A60FB7B0133FB733F
:10145C00FA7B7B685B689A42ADD30023FB7344E054
:10146C00FA7B796813469B001344DB000B4403F2B0
:10147C00691300221A70FA7B796813469B00134497
:10148C00DB000B4403F5B473FA7B1A70FA7B7968B2
:10149C0013469B001344DB000B4403F26B13002236
:1014AC001A70FA7B796813469B001344DB000B44DB
:1014BC0003F5BC7300221A60FA7B796813469B0013
:1014CC001344DB000B4403F5BE7300221A60FA7B55
:1014DC00796813469B001344DB000B4403F5C0737F
:1014EC0000221A60FB7B0133FB73FA7B7B685B6821
:1014FC009A42B5D37B681B683B607E686D4606F1EB
:10150C0010040FCC0FC523682B60331D0ECB38682D
:10151C0002F082FE0346002B05D07B68022283F882
:10152C00A92201230DE07B68002283F824207B682C
:10153C00012283F8A9227B681B68184604F0FDFF82
:10154C00002318461437BD46F0BD80B582B000AFFD
:10155C0078607B6893F8A832012B01D1022316E046
:10156C007B68012283F8A8227B681B68184602F06E
:10157C0017FE0121786807F006F87B681B6818468F
:10158C0004F0D1FF7B68002283F8A82200231846C0
:10159C000837BD4680BD80B588B000AF78607B68E9
:1015AC001B68184604F0D3FF034603F40043B3F55D
:1015BC00004F02D1786800F061FB7B681B6818460D
:1015CC0004F0C5FF034603F48063B3F5806F12D1BA
:1015DC007B681B687A681268B2F8442092B222F4D5
:1015EC00806292B2A3F84420786806F0D4FD002102
:1015FC00786800F025F97B681B68184604F0A7FF93
:10160C00034603F48043B3F5804F0BD17B681B6812
:10161C007A681268B2F8442092B222F4804292B2F4
:10162C00A3F844207B681B68184604F090FF03461F
:10163C0003F40053B3F5005F0BD17B681B687A6829
:10164C001268B2F8442092B222F4005292B2A3F87B
:10165C0044207B681B68184604F079FF034603F4AA
:10166C008053B3F5805F26D17B681B687A6812685B
:10167C00B2F8402092B222F0040292B2A3F84020B9
:10168C007B681B687A681268B2F8402092B222F02C
:10169C00080292B2A3F84020786806F0B5FD7B688A
:1016AC001B687A681268B2F8442092B222F4805215
:1016BC0092B2A3F844207B681B68184604F047FFDD
:1016CC00034603F40063B3F5006F40F084800023FD
:1016DC00FB7711E0FB7F7A6812681146FA7F920063
:1016EC000A44128892B25B0007F120010B4423F8E4
:1016FC00142CFB7F0133FB77FB7F072BEAD97B682C
:10170C001B687A681268B2F8402092B242F001026B
:10171C0092B2A3F840207B681B687A681268B2F812
:10172C00402092B222F0010292B2A3F8402000BFF6
:10173C007B681B68B3F844309BB203F48063002BC6
:10174C00F6D07B681B687A681268B2F8442092B2B3
:10175C0022F4806292B2A3F844200023FB7710E0BD
:10176C007B681B681A46FB7F9B001A44FB7F5B005F
:10177C0007F120010B4433F8143C1380FB7F013339
:10178C00FB77FB7F072BEBD97B681B687A681268A9
:10179C00B2F8402092B242F0080292B2A3F8402074
:1017AC007B681B687A681268B2F8442092B222F403
:1017BC00006292B2A3F844207B681B687A681268B6
:1017CC00B2F8402092B242F0040292B2A3F8402048
:1017DC00786806F0FFFC7B681B68184604F0B7FEBF
:1017EC00034603F40073B3F5007F0ED17B681B68CE
:1017FC007A681268B2F8442092B222F4007292B263
:10180C00A3F84420786806F0B8FC7B681B6818467F
:10181C0004F09DFE034603F48073B3F5807F0BD177
:10182C007B681B687A681268B2F8442092B222F482
:10183C00807292B2A3F8442000BF2037BD4680BD11
:10184C0080B582B000AF78600B46FB707B6893F874
:10185C00A832012B01D1022313E07B68012283F80B
:10186C00A8227B68FA7883F824207B681B68FA78B6
:10187C001146184604F044FE7B68002283F8A82227
:10188C00002318460837BD4680BD80B584B000AF34
:10189C007860084611461A460346FB700B463B809F
:1018AC001346BB700023FB7297F90330002B0EDA42
:1018BC00FB7803F007035A1C13469B001344DB0010
:1018CC007A681344FB60FB6801225A700EE0FB78C7
:1018DC0003F0070213469B001344DB0003F5B473BB
:1018EC007A681344FB60FB6800225A70FB7803F0A3
:1018FC000703DAB2FB681A703A88FB681A61FB6856
:10190C00BA78DA70FB685B78002B04D0FB681B7824
:10191C009AB2FB68DA81BB78022B02D1FB680022F9
:10192C001A717B6893F8A832012B01D102230EE0C7
:10193C007B68012283F8A8227B681B68F96818462B
:10194C0002F08AFC7B68002283F8A822FB7A1846F6
:10195C001037BD4680BD80B584B000AF78600B46B3
:10196C00FB7097F90330002B0EDAFB7803F00703BA
:10197C005A1C13469B001344DB007A681344FB602B
:10198C00FB6801225A700EE0FB7803F00702134645
:10199C009B001344DB0003F5B4737A681344FB60BB
:1019AC00FB6800225A70FB7803F00703DAB2FB687D
:1019BC001A707B6893F8A832012B01D102230EE038
:1019CC007B68012283F8A8227B681B68F96818469B
:1019DC0002F0A6FF7B68002283F8A8220023184699
:1019EC001037BD4680BD80B586B000AFF8607A6018
:1019FC003B600B46FB72FB7A03F0070213469B001D
:101A0C001344DB0003F5B473FA6813447B617B6900
:101A1C007A685A617B693A689A617B690022DA615B
:101A2C007B6900225A70FB7A03F00703DAB27B69F8
:101A3C001A70FB7A03F00703002B06D1FB681B68B6
:101A4C007969184603F058F905E0FB681B68796959
:101A5C00184603F051F9002318461837BD4680BDCF
:101A6C0080B483B000AF78600B46FB70FB7803F05A
:101A7C000702796813469B001344DB000B4403F503
:101A8C00C2731B6818460C37BD4680BC704780B5C6
:101A9C0086B000AFF8607A603B600B46FB72FB7A55
:101AAC0003F007035A1C13469B001344DB00FA682F
:101ABC0013447B617B697A685A617B693A689A61E5
:101ACC007B69012283F824207B693A681A627B695E
:101ADC000022DA617B6901225A70FB7A03F007035A
:101AEC00DAB27B691A70FB7A03F00703002B06D17C
:101AFC00FB681B687969184603F0FEF805E0FB6883
:101B0C001B687969184603F0F7F800231846183754
:101B1C00BD4680BD80B584B000AF78600B46FB70CD
:101B2C00FB7803F007027B685B689A4201D90123BA
:101B3C004CE097F90330002B0EDAFB7803F0070327
:101B4C005A1C13469B001344DB007A681344FB6059
:101B5C00FB6801225A700CE0FA7813469B00134480
:101B6C00DB0003F5B4737A681344FB60FB68002256
:101B7C005A70FB6801229A70FB7803F00703DAB203
:101B8C00FB681A707B6893F8A832012B01D10223F1
:101B9C001CE07B68012283F8A8227B681B68F9682B
:101BAC00184604F0B0FBFB7803F00703002B08D1B8
:101BBC007B681A687B6803F52C731946104604F091
:101BCC00D5FC7B68002283F8A82200231846103726
:101BDC00BD4680BD80B584B000AF78600B46FB700D
:101BEC00FB7803F00F027B685B689A4201D90123F2
:101BFC0040E097F90330002B0EDAFB7803F0070373
:101C0C005A1C13469B001344DB007A681344FB6098
:101C1C00FB6801225A700EE0FB7803F007021346B2
:101C2C009B001344DB0003F5B4737A681344FB6028
:101C3C00FB6800225A70FB6800229A70FB7803F054
:101C4C000703DAB2FB681A707B6893F8A832012B91
:101C5C0001D102230EE07B68012283F8A8227B6865
:101C6C001B68F968184604F09EFB7B68002283F819
:101C7C00A822002318461037BD4680BD80B58EB013
:101C8C0000AF7860ECE27B681B68B3F84430FB85EE
:101C9C00FB8DDBB203F00F0387F82D3097F82D3056
:101CAC00002B40F06181FB8D03F01003002B52D10F
:101CBC007B681B681B889BB223F4E14323F0700301
:101CCC007B857B681A687B8D6FEA43436FEA5343CD
:101CDC009BB213807B6828337B627B681B68B3F8EC
:101CEC0050309BB21A467B6A1B78DB0013440233DC
:101CFC005B007A681268134403F580631B88C3F396
:101D0C0009027B6ADA617B6A5A697B6ADB691A446D
:101D1C007B6A5A610021786806F015FA7B6893F8A3
:101D2C002430DBB2002B00F09B827B6A9B69002B7A
:101D3C0040F096827B681B687A6892F82420D2B2B5
:101D4C0062F07F02D2B292B2A3F84C207B680022E0
:101D5C0083F8242084E27B6803F5B4737B627B6890
:101D6C001B681B887B847B8C03F40063002B34D0B2
:101D7C007B681B68B3F850309BB21A467B6A1B78A1
:101D8C00DB00134406335B007A681268134403F5D6
:101D9C0080631B88C3F309027B6ADA617B6818686D
:101DAC007B6803F52C717B6ADA887B6ADB699BB2F2
:101DBC0004F02BFC7B681B681B889AB240F68F736F
:101DCC0013403B847B681B683A8C42F0800292B2D1
:101DDC001A80786806F08AF942E2B7F92230002BB3
:101DEC0080F23E827B681B681B889AB240F68F7328
:101DFC001340FB837B681B68FA8B42F0800292B223
:101E0C001A807B681B68B3F850309BB21A467B6A09
:101E1C001B78DB00134406335B007A6812681344AA
:101E2C0003F580631B88C3F309027B6ADA617B6A62
:101E3C00DB69002B19D07B6A5B69002B15D07B68A2
:101E4C0018687B6A59697B6ADA887B6ADB699BB2A2
:101E5C0004F0DBFB7B6A5A697B6ADB691A447B6A98
:101E6C005A610021786806F053F97B681B681B885F
:101E7C009BB203F40063002B40F0F2817B681B687B
:101E8C00BB617B681B68B3F850309BB21A46BB69C8
:101E9C001344BB61BB6903F20C437B617B6A1B6916
:101EAC00002B12D17B691B889BB223F4F8439AB2A6
:101EBC007B691A807B691B889BB26FEA43436FEA8C
:101ECC0053439AB27B691A802FE07B6A1B693E2BC5
:101EDC0013D87B6A1B695B083B637B6A1B6903F045
:101EEC000103002B02D03B6B01333B633B6B9BB27A
:101EFC009B029AB27B691A8017E07B6A1B695B09AB
:101F0C003B637B6A1B6903F01F03002B02D13B6B05
:101F1C00013B3B633B6B9BB29B029BB26FEA43431F
:101F2C006FEA53439AB27B691A807B681B681B88E3
:101F3C009BB223F4804323F070037B827B8A83F46F
:101F4C0080537B827B8A83F400537B827B681A6884
:101F5C007B8A43F07F4343F47F0343F4004343F015
:101F6C0080039BB213807BE17B681B681A4697F851
:101F7C002D309B0013441B887B84B7F92230002B37
:101F8C0080F2EA807B681B681A4697F82D309B001C
:101F9C0013441B889AB240F68F7313403B827B68C4
:101FAC001B681A4697F82D309B0013443A8A42F06E
:101FBC00800292B21A8097F82D2013469B0013448E
:101FCC00DB0003F5B4737A6813447B627B6A1B7B7A
:101FDC00002B22D17B681B68B3F850309BB21A4699
:101FEC007B6A1B78DB00134406335B007A6812684B
:101FFC00134403F580631B88C3F30903FB86FB8E34
:10200C00002B00F087807B6818687B6A59697B6AB3
:10201C00DA88FB8E04F0F9FA7CE07B6ADB78022B21
:10202C0008D17B8C1A46796A786800F027F9034648
:10203C00FB866FE07B681B681A467B6A1B789B00EB
:10204C0013441B889BB223F4E04323F07003FB8101
:10205C007B681B681A467B6A1B789B001A44FB89B9
:10206C0043F07F4343F47F0343F4004343F0C00346
:10207C009BB213807B681B681A467B6A1B789B009B
:10208C0013441B889BB203F48043002B21D07B6844
:10209C001B68B3F850309BB21A467B6A1B78DB0086
:1020AC00134402335B007A681268134403F58063AF
:1020BC001B88C3F30903FB86FB8E002B2AD07B689D
:1020CC0018687B6A59697B6A1A89FB8E04F09DFA41
:1020DC0020E07B681B68B3F850309BB21A467B6AD1
:1020EC001B78DB00134406335B007A6812681344D8
:1020FC0003F580631B88C3F30903FB86FB8E002B5F
:10210C0008D07B6818687B6A59697B6A5A89FB8E90
:10211C0004F07BFA7B6ADA69FB8E1A447B6ADA611B
:10212C007B6A5A69FB8E1A447B6A5A617B6A9B698B
:10213C00002B04D0FA8E7B6A1B699A4206D27B6A0A
:10214C001B781946786805F0E3FF05E07B681B688F
:10215C00796A184602F0D0FD7B8C03F08003002BCB
:10216C007ED097F82D305A1C13469B001344DB008D
:10217C007A6813447B627B681B681A4697F82D308B
:10218C009B0013441B889BB223F4E14323F07003A0
:10219C00BB817B681B681A4697F82D309B001A444C
:1021AC00BB896FEA43436FEA53439BB213807B6A4C
:1021BC00DB78032B0CD07B6ADB78002B08D07B6A96
:1021CC00DB78022B46D17B8C03F48073002B41D13E
:1021DC007B681B68B3F850309BB21A467B6A1B783D
:1021EC00DB00134402335B007A681268134403F576
:1021FC0080631B88C3F309037B817B6A9A697B89A3
:10220C009A4206D97B6A9A697B89D21A7B6A9A614F
:10221C0002E07B6A00229A617B6A9B69002B06D1E3
:10222C007B6A1B781946786805F08DFF18E07B6A8D
:10223C005A697B891A447B6A5A617B6ADA697B89A1
:10224C001A447B6ADA617B681B68796A184602F06B
:10225C0053FD05E07B8C1A46796A786800F01BF90F
:10226C007B681B68B3F844309BB21BB2002BFFF6A3
:10227C000AAD002318463837BD4680BD80B588B0FE
:10228C0000AFF860B9601346FB80FB8803F4804311
:10229C00002B7ED0FB681B68B3F850309BB21A46FB
:1022AC00BB681B78DB00134402335B00FA681268CE
:1022BC00134403F580631B88C3F30903FB83BB68DA
:1022CC009A69FB8B9A4206D3BB689A69FB8BD21A2C
:1022DC00BB689A6102E0BB6800229A61BB689B698B
:1022EC00002B23D1FB681B681A46BB681B789B002C
:1022FC0013441B889BB223F4804323F07003BB83ED
:10230C00BB8B83F40053BB83FB681B681A46BB680A
:10231C001B789B001A44BB8B43F07F4343F47F0331
:10232C0043F4004343F080039BB21380FB8803F01B
:10233C004003002B1FD0FB681B681A46BB681B7838
:10234C009B0013441B889BB223F4E04323F07003DF
:10235C007B83FB681B681A46BB681B789B001A447E
:10236C007B8B43F07F4343F47F0343F4004343F000
:10237C00C0039BB21380FB8B002B00F08780FB68A3
:10238C001868BB685969BB681A89FB8B04F03DF966
:10239C007CE0FB681B68B3F850309BB21A46BB68F4
:1023AC001B78DB00134406335B00FA681268134495
:1023BC0003F580631B88C3F30903FB83BB689A692D
:1023CC00FB8B9A4206D3BB689A69FB8BD21ABB680B
:1023DC009A6102E0BB6800229A61BB689B69002B82
:1023EC0023D1FB681B681A46BB681B789B001344FF
:1023FC001B889BB223F4804323F070033B833B8BFD
:10240C0083F400533B83FB681B681A46BB681B783C
:10241C009B001A443B8B43F07F4343F47F0343F40C
:10242C00004343F080039BB21380FB8803F040030E
:10243C00002B1FD1FB681B681A46BB681B789B00DE
:10244C0013441B889BB223F4E04323F07003FB82FC
:10245C00FB681B681A46BB681B789B001A44FB8AF6
:10246C0043F07F4343F47F0343F4004343F0C00342
:10247C009BB21380FB8B002B08D0FB681868BB68E1
:10248C005969BB685A89FB8B04F0BFF8FB8B184663
:10249C002037BD4680BD80B5A4B000AFF860B960F0
:1024AC001346FB80FB8803F04003002B00F0DD811A
:1024BC00FB681B68B3F850309BB21A46BB681B789C
:1024CC00DB00134402335B00FA681268134403F513
:1024DC0080631B88C3F30903A7F88230BB689A6931
:1024EC00B7F882309A4207D9BB689A69B7F882303C
:1024FC00D21ABB689A6102E0BB6800229A61BB6881
:10250C009B69002B40F0BB80BB685B78002B26D10D
:10251C00FB681B68FB67FB681B68B3F850309BB209
:10252C001A46FB6F1344FB67BB681B781A01FB6FE1
:10253C00134403F20443BB67BB6F1B889BB223F4A9
:10254C00F8439AB2BB6F1A80BB6F1B889BB26FEAC1
:10255C0043436FEA53439AB2BB6F1A801AE0BB68CD
:10256C005B78012B16D1FB681B687B67FB681B68CB
:10257C00B3F850309BB21A467B6F13447B67BB6831
:10258C001B781A017B6F134403F204433B673B6FC8
:10259C0000221A80FB681B68FB66BB685B78002B0B
:1025AC0026D1FB681B68BB66FB681B68B3F8503010
:1025BC009BB21A46BB6E1344BB66BB681B781A01F0
:1025CC00BB6E134403F20C437B667B6E1B889BB281
:1025DC0023F4F8439AB27B6E1A807B6E1B889BB2F5
:1025EC006FEA43436FEA53439AB27B6E1A8017E04B
:1025FC00BB685B78012B13D1FB681B68B3F85030B8
:10260C009BB21A46FB6E1344FB66BB681B781A011F
:10261C00FB6E134403F20C433B663B6E00221A80A4
:10262C00BB681B781946F86805F08DFDFB8803F430
:10263C008043002B00F0F182FB681B681A46BB68D4
:10264C001B789B0013441B889BB223F4E04323F0BC
:10265C007003A7F85E30FB681B681A46BB681B78D2
:10266C009B001A44B7F85E3043F07F4343F47F037A
:10267C0043F4404343F080039BB21380CDE2FB88CC
:10268C0003F48043002B21D0FB681B681A46BB68FF
:10269C001B789B0013441B889BB223F4E04323F06C
:1026AC007003A7F85C30FB681B681A46BB681B7884
:1026BC009B001A44B7F85C3043F07F4343F47F032C
:1026CC0043F4404343F080039BB21380BB6893F800
:1026DC002430012B40F0A182BB685A69B7F88230D4
:1026EC001A44BB685A61BB68DA69B7F882301A447D
:1026FC00BB68DA61BB681A6ABB681B699A420BD368
:10270C00BB681B69C7F88C30BB681A6AD7F88C3069
:10271C00D21ABB681A6217E0BB681B6A002B08D17F
:10272C00B7F88230C7F88C30BB68002283F82420BD
:10273C000AE0BB68002283F82420BB681B6AC7F838
:10274C008C30BB6800221A62BB685B78002B63D1AB
:10275C00FB681B68BB65FB681B68B3F850309BB209
:10276C001A46BB6D1344BB65BB681B781A01BB6D65
:10277C00134403F204437B65D7F88C30002B12D141
:10278C007B6D1B889BB223F4F8439AB27B6D1A8045
:10279C007B6D1B889BB26FEA43436FEA53439AB23B
:1027AC007B6D1A8055E0D7F88C303E2B17D8D7F8B4
:1027BC008C305B08C7F88830D7F88C3003F00103F5
:1027CC00002B04D0D7F888300133C7F88830D7F8FD
:1027DC0088309BB29B029AB27B6D1A8039E0D7F895
:1027EC008C305B09C7F88830D7F88C3003F01F03A6
:1027FC00002B04D1D7F88830013BC7F88830D7F8C4
:10280C0088309BB29B029BB26FEA43436FEA5343FF
:10281C009AB27B6D1A801CE0BB685B78012B18D1D7
:10282C00FB681B683B65FB681B68B3F850309BB2B8
:10283C001A463B6D13443B65BB681B781A013B6D14
:10284C00134403F20443FB64D7F88C309AB2FB6C4C
:10285C001A80FB681868BB685969BB681A89D7F875
:10286C008C309BB203F08DFED7E1FB681B68B3F88C
:10287C0050309BB21A46BB681B78DB0013440633FE
:10288C005B00FA681268134403F580631B88C3F37A
:10289C000903A7F88230BB689A69B7F882309A426C
:1028AC0007D3BB689A69B7F88230D21ABB689A61B1
:1028BC0002E0BB6800229A61BB689B69002B40F068
:1028CC00B980BB685B78002B26D1FB681B68BB64A6
:1028DC00FB681B68B3F850309BB21A46BB6C1344B0
:1028EC00BB64BB681B781A01BB6C134403F2044332
:1028FC007B647B6C1B889BB223F4F8439AB27B6C91
:10290C001A807B6C1B889BB26FEA43436FEA53437C
:10291C009AB27B6C1A801AE0BB685B78012B16D1DB
:10292C00FB681B683B64FB681B68B3F850309BB2B8
:10293C001A463B6C13443B64BB681B781A013B6C16
:10294C00134403F20443FB63FB6B00221A80FB6805
:10295C001B68BB63BB685B78002B26D1FB681B68CC
:10296C007B63FB681B68B3F850309BB21A467B6BD9
:10297C0013447B63BB681B781A017B6B134403F213
:10298C000C433B633B6B1B889BB223F4F8439AB21A
:10299C003B6B1A803B6B1B889BB26FEA43436FEA1D
:1029AC0053439AB23B6B1A8017E0BB685B78012BE0
:1029BC0013D1FB681B68B3F850309BB21A46BB6B43
:1029CC001344BB63BB681B781A01BB6B134403F243
:1029DC000C43FB62FB6A00221A80BB681B78194609
:1029EC00F86805F0B0FBFB8803F48043002B40F043
:1029FC001481FB681B681A46BB681B789B00134448
:102A0C001B889BB223F4E04323F070037B85FB68A7
:102A1C001B681A46BB681B789B001A447B8D43F0DD
:102A2C007F4343F47F0343F4404343F080039BB262
:102A3C001380F2E0FB8803F48043002B1FD1FB686A
:102A4C001B681A46BB681B789B0013441B889BB2FF
:102A5C0023F4E04323F070033B85FB681B681A46A4
:102A6C00BB681B789B001A443B8D43F07F4343F4B7
:102A7C007F0343F4404343F080039BB21380BB6855
:102A8C0093F82430012B40F0C880BB685A69B7F822
:102A9C0082301A44BB685A61BB68DA69B7F8823075
:102AAC001A44BB68DA61BB681A6ABB681B699A4234
:102ABC000BD3BB681B69C7F88C30BB681A6AD7F894
:102ACC008C30D21ABB681A6217E0BB681B6A002BE9
:102ADC0008D1B7F88230C7F88C30BB68002283F875
:102AEC0024200AE0BB681B6AC7F88C30BB68002244
:102AFC001A62BB68002283F82420FB681B687B6287
:102B0C00BB685B78002B63D1FB681B683B62FB687E
:102B1C001B68B3F850309BB21A463B6A13443B62B5
:102B2C00BB681B781A013B6A134403F20C43FB612C
:102B3C00D7F88C30002B12D1FB691B889BB223F485
:102B4C00F8439AB2FB691A80FB691B889BB26FEA47
:102B5C0043436FEA53439AB2FB691A8052E0D7F8A9
:102B6C008C303E2B17D8D7F88C305B08C7F88430E4
:102B7C00D7F88C3003F00103002B04D0D7F8843045
:102B8C000133C7F88430D7F884309BB29B029AB2D9
:102B9C00FB691A8036E0D7F88C305B09C7F88430B3
:102BAC00D7F88C3003F01F03002B04D1D7F88430F6
:102BBC00013BC7F88430D7F884309BB29B029BB2A0
:102BCC006FEA43436FEA53439AB2FB691A8019E0E8
:102BDC00BB685B78012B15D1FB681B68B3F85030D0
:102BEC009BB21A467B6A13447B62BB681B781A0142
:102BFC007B6A134403F20C43BB61D7F88C309AB256
:102C0C00BB691A80FB681868BB685969BB685A892C
:102C1C00D7F88C309BB203F0B4FCFB681B681A46E7
:102C2C00BB681B789B0013441B889BB223F4E043C6
:102C3C0023F04003FB82FB8A83F01003FB82FB8AA8
:102C4C0083F02003FB82FB681B681A46BB681B7869
:102C5C009B001A44FB8A43F07F4343F47F0343F405
:102C6C00004343F080039BB2138000231846903737
:102C7C00BD4680BD80B487B000AFF8607B600B466A
:102C8C007B8113463B817B8903F080039BB2002B35
:102C9C000BD07B8903F007035A1C13469B0013448B
:102CAC00DB00FA6813447B6109E07A8913469B00C8
:102CBC001344DB0003F5B473FA6813447B613B895E
:102CCC00002B07D17B6900221A737B689AB27B694F
:102CDC00DA800BE07B6901221A737B689AB27B69FC
:102CEC001A817B681B0C9AB27B695A8100231846A7
:102CFC001C37BD4680BC704780B586B000AF78608D
:102D0C007B68002B01D101236CE27B681B6803F00C
:102D1C000103002B00F08780924B5B6803F00C03DF
:102D2C00042B0CD08F4B5B6803F00C03082B12D1D7
:102D3C008C4B5B6803F48033B3F5803F0BD1894B2C
:102D4C001B6803F40033002B6CD07B685B68002B92
:102D5C0068D1012346E27B685B68B3F5803F06D1FE
:102D6C00804A804B1B6843F4803313602EE07B68F1
:102D7C005B68002B0CD17B4A7A4B1B6823F48033A5
:102D8C001360784A774B1B6823F4802313601DE093
:102D9C007B685B68B3F5A02F0CD1724A714B1B6832
:102DAC0043F4802313606F4A6E4B1B6843F48033EB
:102DBC0013600BE06B4A6B4B1B6823F4803313607E
:102DCC00684A684B1B6823F4802313607B685B683C
:102DDC00002B13D0FDF7EEFE386108E0FDF7EAFE9C
:102DEC0002463B69D31A642B01D90323FAE15D4BEC
:102DFC001B6803F40033002BF0D014E0FDF7DAFE6F
:102E0C00386108E0FDF7D6FE02463B69D31A642B05
:102E1C0001D90323E6E1534B1B6803F40033002B69
:102E2C00F0D100E000BF7B681B6803F00203002BAD
:102E3C0063D04C4B5B6803F00C03002B0BD0494B5D
:102E4C005B6803F00C03082B1CD1464B5B6803F446
:102E5C008033002B16D1434B1B6803F00203002B6D
:102E6C0005D07B681B69012B01D00123BAE13D49D8
:102E7C003C4B1B6823F0F8027B685B69DB00134357
:102E8C000B603AE07B681B69002B20D0364B01228B
:102E9C001A60FDF78FFE386108E0FDF78BFE0246E5
:102EAC003B69D31A022B01D903239BE12D4B1B68E1
:102EBC0003F00203002BF0D02A492A4B1B6823F0A5
:102ECC00F8027B685B69DB0013430B6015E0264B53
:102EDC0000221A60FDF76EFE386108E0FDF76AFE0D
:102EEC0002463B69D31A022B01D903237AE11D4B0D
:102EFC001B6803F00203002BF0D17B681B6803F006
:102F0C000803002B3AD07B689B69002B19D0174B18
:102F1C0001221A60FDF74EFE386108E0FDF74AFE0B
:102F2C0002463B69D31A022B01D903235AE10D4BFC
:102F3C005B6A03F00203002BF0D0012000F0FAFAD8
:102F4C001CE00A4B00221A60FDF734FE38610FE0DA
:102F5C00FDF730FE02463B69D31A022B08D9032336
:102F6C0040E100BF00100240000042428004424297
:102F7C009E4B5B6A03F00203002BE9D17B681B6854
:102F8C0003F00403002B00F0A6800023FB75974B85
:102F9C00DB6903F08053002B0DD1944A934BDB6912
:102FAC0043F08053D361914BDB6903F08053BB60DA
:102FBC00BB680123FB758E4B1B6803F48073002BDD
:102FCC0018D18B4A8A4B1B6843F480731360FDF74E
:102FDC00F1FD386108E0FDF7EDFD02463B69D31ABF
:102FEC00642B01D90323FDE0814B1B6803F4807330
:102FFC00002BF0D07B68DB68012B06D17B4A7B4B26
:10300C001B6A43F0010313622DE07B68DB68002B25
:10301C000CD1764A754B1B6A23F001031362734A79
:10302C00724B1B6A23F0040313621CE07B68DB68A1
:10303C00052B0CD16D4A6D4B1B6A43F004031362D4
:10304C006A4A6A4B1B6A43F0010313620BE0674A3E
:10305C00664B1B6A23F001031362644A634B1B6AC1
:10306C0023F0040313627B68DB68002B15D0FDF79B
:10307C00A1FD38610AE0FDF79DFD02463B69D31ABC
:10308C0041F28832934201D90323ABE0574B1B6AC0
:10309C0003F00203002BEED014E0FDF78BFD38613A
:1030AC000AE0FDF787FD02463B69D31A41F28832EC
:1030BC00934201D9032395E04C4B1B6A03F00203A6
:1030CC00002BEED1FB7D012B05D1484A474BDB6928
:1030DC0023F08053D3617B68DB69002B00F0818087
:1030EC00424B5B6803F00C03082B61D07B68DB69F7
:1030FC00022B46D13F4B00221A60FDF75BFD386175
:10310C0008E0FDF757FD02463B69D31A022B01D9A3
:10311C00032367E0354B1B6803F00073002BF0D1E1
:10312C007B681B6AB3F5803F08D130492F4B5B6835
:10313C0023F400327B689B6813434B602B482B4B6A
:10314C005B6823F474127B68196A7B685B6A0B43B7
:10315C0013434360274B01221A60FDF72BFD3861A6
:10316C0008E0FDF727FD02463B69D31A022B01D973
:10317C00032337E01D4B1B6803F00073002BF0D0CA
:10318C002FE01C4B00221A60FDF714FD386108E09B
:10319C00FDF710FD02463B69D31A022B01D903231C
:1031AC0020E0124B1B6803F00073002BF0D118E0E9
:1031BC007B68DB69012B01D1012313E00B4B5B68AE
:1031CC00FB60FB6803F480327B681B6A9A4206D171
:1031DC00FB6803F470127B685B6A9A4201D001238E
:1031EC0000E0002318461837BD4680BD0010024091
:1031FC00007000406000424280B584B000AF78603F
:10320C0039607B68002B01D10123D0E06A4B1B682D
:10321C0003F007023B689A4210D26749664B1B6861
:10322C0023F007023B6813430B60634B1B6803F0EE
:10323C0007023B689A4201D00123B8E07B681B6807
:10324C0003F00203002B20D07B681B6803F00403FF
:10325C00002B05D0594A594B5B6843F4E06353602B
:10326C007B681B6803F00803002B05D0534A534BB3
:10327C005B6843F4605353605049504B5B6823F0D8
:10328C00F0027B689B6813434B607B681B6803F000
:10329C000103002B40D07B685B68012B07D1474BA7
:1032AC001B6803F40033002B15D101237FE07B68EE
:1032BC005B68022B07D1414B1B6803F00073002B9A
:1032CC0009D1012373E03D4B1B6803F00203002B73
:1032DC0001D101236BE03949384B5B6823F00302C1
:1032EC007B685B6813434B60FDF764FCF8600AE095
:1032FC00FDF760FC0246FB68D31A41F28832934218
:10330C0001D9032353E02D4B5B6803F00C027B685F
:10331C005B689B009A42EBD1274B1B6803F00702BA
:10332C003B689A4210D92449234B1B6823F00702AF
:10333C003B6813430B60204B1B6803F007023B6890
:10334C009A4201D0012332E07B681B6803F004032E
:10335C00002B08D01949194B5B6823F4E0627B6899
:10336C00DB6813434B607B681B6803F00803002B7E
:10337C0009D01249114B5B6823F460527B681B69BE
:10338C00DB0013434B6000F02DF801460B4B5B68E0
:10339C001B0903F00F030A4AD35C21FA03F3094A11
:1033AC001360094B1B681846FDF7C2FB0023184637
:1033BC001037BD4680BD00BF002002400010024007
:1033CC0018870008000000200400002080B400AF23
:1033DC00034B01221A6000BFBD4680BC704700BF82
:1033EC004C00424290B48AB000AF2A4B3C1D0FCB2C
:1033FC0084E80F00284B1B883B800023FB610023D3
:10340C00BB6100237B6200237B6100233B62234B67
:10341C005B68FB61FB6903F00C03042B02D0082BE7
:10342C0003D02DE01E4B3B622DE0FB699B0C03F09F
:10343C000F0307F12802134413F8243C7B61FB694A
:10344C0003F48033002B13D0144B5B685B0C03F03C
:10345C00010307F12802134413F8283CBB617B6974
:10346C000F4A02FB03F2BB69B2FBF3F37B6204E08D
:10347C007B690C4A02FB03F37B627B6A3B6202E0D2
:10348C00074B3B6200BF3B6A18462837BD4690BCD1
:10349C00704700BFBC860008CC86000800100240B4
:1034AC0000127A0000093D0080B400AF024B1B688B
:1034BC001846BD4680BC70470000002080B500AFA8
:1034CC00FFF7F2FF0146054B5B681B0A03F007038D
:1034DC00034AD35C21FA03F3184680BD0010024066
:1034EC002887000880B500AFFFF7DEFF0146054BCB
:1034FC005B68DB0A03F00703034AD35C21FA03F38E
:10350C00184680BD001002402887000880B500AF27
:10351C00064B9B6803F08003802B04D100F028F845
:10352C00034B80221A7000BF80BD00BF0010024008
:10353C000A10024080B485B000AF78600A4B1B685B
:10354C000A4AA2FB03235B0A7A6802FB03F3FB60C3
:10355C0000BFFB685A1EFA60002BF9D100BF14376C
:10356C00BD4680BC704700BF00000020D34D6210E8
:10357C0080B400AF00BFBD4680BC704780B586B03C
:10358C0000AF786000233B610023FB607B681B6805
:10359C0003F00103002B7DD00023FB754F4BDB693F
:1035AC0003F08053002B0DD14C4A4C4BDB6943F09C
:1035BC008053D361494BDB6903F08053BB60BB681C
:1035CC000123FB75464B1B6803F48073002B18D149
:1035DC00434A434B1B6843F480731360FDF7EAFACC
:1035EC00386108E0FDF7E6FA02463B69D31A642B12
:1035FC0001D903236DE03A4B1B6803F48073002B55
:10360C00F0D0364B1B6A03F44073FB60FB68002B55
:10361C002ED07B685B6803F44072FB689A4227D01B
:10362C002E4B1B6A23F44073FB602E4B01221A6055
:10363C002C4B00221A60294AFB681362FB6803F0CA
:10364C000103002B14D0FDF7B5FA38610AE0FDF741
:10365C00B1FA02463B69D31A41F28832934201D93E
:10366C00032336E01D4B1B6A03F00203002BEED044
:10367C001A491A4B1B6A23F440727B685B6813432C
:10368C000B62FB7D012B05D1144A144BDB6923F033
:10369C008053D3617B681B6803F00203002B08D0B6
:1036AC000E490E4B5B6823F440427B689B681343C6
:1036BC004B607B681B6803F01003002B08D0074994
:1036CC00064B5B6823F480027B68DB6813434B601A
:1036DC00002318461837BD4680BD00BF00100240BD
:1036EC00007000404004424280B582B000AF786068
:1036FC007B68002B01D1012375E07B685B6A002B92
:10370C0008D17B685B68B3F5827F09D07B680022A7
:10371C00DA6105E07B6800221A617B6800225A613D
:10372C007B6800229A627B6893F85130DBB2002BE5
:10373C0006D17B68002283F850207868FDF732F8B8
:10374C007B68022283F851207B681B687A681268B8
:10375C00126822F040021A607B681B687A68526813
:10376C0002F482717A68926802F4044211437A6816
:10377C00D26802F4006211437A68126902F0020204
:10378C0011437A68526902F0010211437A68926916
:10379C0002F4007211437A68D26902F038021143C4
:1037AC007A68126A02F0800211437A68926A02F413
:1037BC0000520A431A607B681B687A689269120C83
:1037CC0002F004025A607B681B687A681268D2693E
:1037DC0022F40062DA617B6800225A657B68012260
:1037EC0083F85120002318460837BD4680BD80B5AC
:1037FC0082B000AF78607B68002B01D1012341E0DF
:10380C007B6893F83D30DBB2002B06D17B6800223D
:10381C0083F83C207868FDF7CBF87B68022283F8AC
:10382C003D207B681A687B6804331946104600F00B
:10383C0063FA7B68012283F846207B68012283F8B7
:10384C003E207B68012283F83F207B68012283F8AD
:10385C0040207B68012283F841207B68012283F899
:10386C0042207B68012283F843207B68012283F885
:10387C0044207B68012283F845207B68012283F871
:10388C003D20002318460837BD4680BD80B485B066
:10389C0000AF78607B6893F83D30DBB2012B01D030
:1038AC0001233AE07B68022283F83D207B681B6889
:1038BC007A681268D26842F00102DA607B681B6891
:1038CC00184A93420ED07B681B68B3F1804F09D025
:1038DC007B681B68144A934204D07B681B68134AAC
:1038EC00934211D17B681B689B6803F00703FB6054
:1038FC00FB68062B10D07B681B687A68126812680C
:10390C0042F001021A6007E07B681B687A68126853
:10391C00126842F001021A60002318461437BD46A3
:10392C0080BC7047002C014000040040000800409F
:10393C0080B582B000AF78607B681B681B6903F0B0
:10394C000203022B22D17B681B68DB6803F00203A5
:10395C00022B1BD17B681B686FF002021A617B681B
:10396C0001221A777B681B689B6903F00303002B09
:10397C0003D0786800F0A4F905E0786800F097F9B6
:10398C00786800F0A6F97B6800221A777B681B68C0
:10399C001B6903F00403042B22D17B681B68DB68D2
:1039AC0003F00403042B1BD17B681B686FF004022B
:1039BC001A617B6802221A777B681B689B6903F487
:1039CC004073002B03D0786800F07AF905E0786832
:1039DC0000F06DF9786800F07CF97B6800221A77AA
:1039EC007B681B681B6903F00803082B22D17B68DA
:1039FC001B68DB6803F00803082B1BD17B681B6872
:103A0C006FF008021A617B6804221A777B681B68C6
:103A1C00DB6903F00303002B03D0786800F050F946
:103A2C0005E0786800F043F9786800F052F97B689B
:103A3C0000221A777B681B681B6903F01003102B9C
:103A4C0022D17B681B68DB6803F01003102B1BD1A1
:103A5C007B681B686FF010021A617B6808221A776A
:103A6C007B681B68DB6903F44073002B03D0786818
:103A7C0000F026F905E0786800F019F9786800F094
:103A8C0028F97B6800221A777B681B681B6903F096
:103A9C000103012B0ED17B681B68DB6803F001036B
:103AAC00012B07D17B681B686FF001021A617868E3
:103ABC00FCF782FD7B681B681B6903F08003802B7D
:103ACC000ED17B681B68DB6803F08003802B07D169
:103ADC007B681B686FF080021A61786800F06BFAE3
:103AEC007B681B681B6903F04003402B0ED17B687D
:103AFC001B68DB6803F04003402B07D17B681B6815
:103B0C006FF040021A61786800F0ECF87B681B6873
:103B1C001B6903F02003202B0ED17B681B68DB682C
:103B2C0003F02003202B07D17B681B686FF0200269
:103B3C001A61786800F036FA00BF0837BD4680BDC0
:103B4C0080B584B000AF786039607B6893F83C3006
:103B5C00012B01D10223A6E07B68012283F83C20D3
:103B6C007B68022283F83D207B681B689B68FB60A6
:103B7C00FB6823F07703FB60FB6823F47F43FB6057
:103B8C007B681B68FA689A603B681B68402B67D09F
:103B9C00402B0BD8102B73D0102B02D8002B6FD0CE
:103BAC0078E0202B6CD0302B6AD073E0702B0DD0CA
:103BBC00702B04D8502B33D0602B41D06AE0B3F576
:103BCC00805F66D0B3F5005F17D063E07B68186840
:103BDC003B6899683B685A683B68DB6800F065F99C
:103BEC007B681B689B68FB60FB6843F07703FB609A
:103BFC007B681B68FA689A604CE07B6818683B68C5
:103C0C0099683B685A683B68DB6800F04EF97B6842
:103C1C001B687A681268926842F480429A6039E0B4
:103C2C007B6818683B6859683B68DB681A4600F08B
:103C3C00C5F87B681B685021184600F01CF929E078
:103C4C007B6818683B6859683B68DB681A4600F06B
:103C5C00E3F87B681B686021184600F00CF919E04A
:103C6C007B6818683B6859683B68DB681A4600F04B
:103C7C00A5F87B681B684021184600F0FCF809E0A9
:103C8C007B681A683B681B681946104600F0F3F80D
:103C9C0000E000BF7B68012283F83D207B68002296
:103CAC0083F83C20002318461037BD4680BD80B4F5
:103CBC0083B000AF786000BF0C37BD4680BC704746
:103CCC0080B483B000AF786000BF0C37BD4680BCB9
:103CDC00704780B483B000AF786000BF0C37BD462E
:103CEC0080BC704780B483B000AF786000BF0C37E5
:103CFC00BD4680BC7047000080B485B000AF7860D2
:103D0C0039607B681B68FB607B68294A93420BD047
:103D1C007B68B3F1804F07D07B68264A934203D06F
:103D2C007B68254A934208D1FB6823F07003FB6043
:103D3C003B685B68FA681343FB607B681C4A9342E0
:103D4C000BD07B68B3F1804F07D07B68194A934244
:103D5C0003D07B68184A934208D1FB6823F4407364
:103D6C00FB603B68DB68FA681343FB60FB6823F07D
:103D7C0080023B685B691343FB607B68FA681A60DE
:103D8C003B689A687B68DA623B681A687B689A625F
:103D9C007B68074A934203D13B681A697B681A63B4
:103DAC007B6801225A6100BF1437BD4680BC704746
:103DBC00002C0140000400400008004080B487B093
:103DCC0000AFF860B9607A60FB681B6A7B61FB68C6
:103DDC001B6A23F00102FB681A62FB689B693B615A
:103DEC003B6923F0F0033B617B681B013A69134389
:103DFC003B617B6923F00A037B617A69BB681343DF
:103E0C007B61FB683A699A61FB687A691A6200BF48
:103E1C001C37BD4680BC704780B487B000AFF860DB
:103E2C00B9607A60FB681B6A23F01002FB681A62A7
:103E3C00FB689B697B61FB681B6A3B617B6923F4B4
:103E4C0070437B617B681B037A6913437B613B691D
:103E5C0023F0A0033B61BB681B013A6913433B6130
:103E6C00FB687A699A61FB683A691A6200BF1C3771
:103E7C00BD4680BC704780B485B000AF78603960B7
:103E8C007B689B68FB60FB6823F07003FB603A68FF
:103E9C00FB68134343F00703FB607B68FA689A6086
:103EAC0000BF1437BD4680BC704780B487B000AFEC
:103EBC00F860B9607A603B60FB689B687B617B69EA
:103ECC0023F47F437B613B681A027B681A43BB680F
:103EDC0013437A6913437B61FB687A699A6000BF6C
:103EEC001C37BD4680BC704780B485B000AF78608D
:103EFC0039607B6893F83C30012B01D1022346E0FA
:103F0C007B68012283F83C207B68022283F83D20E9
:103F1C007B681B685B68FB607B681B689B68BB608D
:103F2C00FB6823F07003FB603B681B68FA68134363
:103F3C00FB607B681B68FA685A607B681B68164AD2
:103F4C0093420ED07B681B68B3F1804F09D07B681D
:103F5C001B68124A934204D07B681B68104A934238
:103F6C000CD1BB6823F08003BB603B685B68BA680C
:103F7C001343BB607B681B68BA689A607B6801223C
:103F8C0083F83D207B68002283F83C2000231846F0
:103F9C001437BD4680BC7047002C01400004004023
:103FAC000008004080B483B000AF786000BF0C37CD
:103FBC00BD4680BC704780B483B000AF786000BF52
:103FCC000C37BD4680BC704780B582B000AF7860BE
:103FDC007B68002B01D101233FE07B6893F83D30D7
:103FEC00DBB2002B06D17B68002283F83C2078687A
:103FFC00FCF72EFD7B68242283F83D207B681B6830
:10400C007A681268D26822F40052DA60786800F09C
:10401C0029F87B681B687A681268126922F490424E
:10402C001A617B681B687A681268526922F02A024E
:10403C005A617B681B687A681268D26842F4005235
:10404C00DA607B6800221A647B68202283F83D20AA
:10405C007B68202283F83E20002318460837BD4693
:10406C0080BD000090B585B000AF78607B681B68A0
:10407C007A681268126922F440517A68D2680A434D
:10408C001A617B689A687B681B691A437B685B6959
:10409C001343BB607B681A687B681B68DB6823F47E
:1040AC00B05323F00C03B9680B43D3607B681B68D7
:1040BC007A681268526922F440717A6892690A43EC
:1040CC005A617B681B682C4A934203D1FFF70AFAAA
:1040DC00F86002E0FFF7F2F9F8607B681968FA689B
:1040EC0013469B0013449A001A447B685B689B0040
:1040FC00B2FBF3F3214AA2FB03235B091801FA6814
:10410C0013469B0013449A001A447B685B689B001F
:10411C00B2FBF3F2194BA3FB02435B09642404FBCF
:10412C0003F3D31A1B013233144AA2FB03235B099A
:10413C0003F0F0031844FA6813469B0013449A00EA
:10414C001A447B685B689B00B2FBF3F20B4BA3FB3E
:10415C0002435B09642404FB03F3D31A1B013233BF
:10416C00064AA2FB03235B0903F00F0303448B6095
:10417C0000BF1437BD4690BD003801401F85EB5180
:10418C0084B080B483B000AF786007F1140080E88D
:10419C000E00002318460C37BD4680BC04B0704797
:1041AC0080B485B000AF78607B680022A3F844200F
:1041BC004FF43F43FB60FB689AB27B68A3F8402046
:1041CC00002318461437BD4680BC704780B485B0B8
:1041DC0000AF78604FF43F43FB607B68B3F840302E
:1041EC009AB2FB689BB2DB439BB213409AB27B68DA
:1041FC00A3F84020002318461437BD4680BC7047F6
:10420C0080B483B000AF78600B46FB700023184677
:10421C000C37BD4680BC704784B080B483B000AF0F
:10422C00786007F1140080E80E007B680122A3F887
:10423C0040207B680022A3F840207B680022A3F872
:10424C0044207B680022A3F85020002318460C372A
:10425C00BD4680BC04B0704780B49BB000AF7860A2
:10426C003960002387F867307A683B681B789B00BD
:10427C0013441B889BB223F4EC4323F07003A7F880
:10428C0064303B68DB78032B1FD801A252F823F073
:10429C00AD420008C9420008DF420008BB420008DA
:1042AC00B7F8643043F40073A7F8643012E0B7F841
:1042BC00643043F4C063A7F864300BE0B7F86430A3
:1042CC0043F48063A7F8643004E0012387F8673077
:1042DC0000E000BF7A683B681B789B001A44B7F873
:1042EC00643043F07F4343F47F0343F4004343F0D3
:1042FC0080039BB213807A683B681B789B00134445
:10430C001B889BB223F4E04323F070039AB23B6802
:10431C001B789BB21343A7F85E307A683B681B7816
:10432C009B001A44B7F85E3043F07F4343F47F039D
:10433C0043F4004343F080039BB213803B681B7B28
:10434C00002B40F053813B685B78002B00F08E8093
:10435C007B68BB657B68B3F850309BB21A46BB6D6B
:10436C001344BB653B681B781A01BB6D134403F502
:10437C0080637B653B68DB885B089BB25B009AB211
:10438C007B6D1A807A683B681B789B0013441B88F2
:10439C00A7F85230B7F8523003F04003002B1DD071
:1043AC007A683B681B789B0013441B889BB223F4F0
:1043BC00E04323F07003A7F850307A683B681B7811
:1043CC009B001A44B7F8503043F07F4343F47F030B
:1043DC0043F4004343F0C0039BB213803B68DB788B
:1043EC00012B24D07A683B681B789B0013441B88F4
:1043FC009BB223F4E04323F04003A7F84E30B7F808
:10440C004E3083F02003A7F84E307A683B681B7857
:10441C009B001A44B7F84E3043F07F4343F47F03BC
:10442C0043F4004343F080039BB2138071E27A683B
:10443C003B681B789B0013441B889BB223F4E0431E
:10444C0023F04003A7F84C307A683B681B789B003C
:10445C001A44B7F84C3043F07F4343F47F0343F4E2
:10446C00004343F080039BB2138052E27B68BB6431
:10447C007B68B3F850309BB21A46BB6C1344BB64D8
:10448C003B681B781A01BB6C134403F581637B6496
:10449C003B68DB885B089BB25B009AB27B6C1A8032
:1044AC007B683B647B68B3F850309BB21A463B6C1C
:1044BC0013443B643B681B781A013B6C134403F2B6
:1044CC000C43FB633B681B69002B12D1FB6B1B88F5
:1044DC009BB223F4F8439AB2FB6B1A80FB6B1B88DC
:1044EC009BB26FEA43436FEA53439AB2FB6B1A8059
:1044FC002FE03B681B693E2B13D83B681B695B089C
:10450C003B663B681B6903F00103002B02D03B6E3A
:10451C0001333B663B6E9BB29B029AB2FB6B1A80DB
:10452C0017E03B681B695B093B663B681B6903F042
:10453C001F03002B02D13B6E013B3B663B6E9BB2D3
:10454C009B029BB26FEA43436FEA53439AB2FB6BF5
:10455C001A807A683B681B789B0013441B887B8706
:10456C007B8F03F48043002B1BD07A683B681B784D
:10457C009B0013441B889BB223F4E04323F070038D
:10458C003B877A683B681B789B001A443B8F43F04F
:10459C007F4343F47F0343F4404343F080039BB2D7
:1045AC0013807A683B681B789B0013441B889BB272
:1045BC0023F4804323F07003FB86FB8E83F480533B
:1045CC00FB86FB8E83F40053FB867A683B681B7872
:1045DC009B001A44FB8E43F07F4343F47F0343F468
:1045EC00004343F080039BB2138092E17A683B68EE
:1045FC001B789B0013441B889BB223F4E04323F0ED
:10460C007003BB867A683B681B789B001A44BB8E90
:10461C0043F07F4343F47F0343F4014343F08003AF
:10462C009BB213807B683B637B68B3F850309BB2C2
:10463C001A463B6B13443B633B681B781A013B6B7C
:10464C00134403F58063FB623B681B895B089BB2D8
:10465C005B009AB2FB6A1A807B68BB627B68B3F81A
:10466C0050309BB21A46BB6A1344BB623B681B7842
:10467C001A01BB6A134403F581637B623B685B8957
:10468C005B089BB25B009AB27B6A1A803B685B78D2
:10469C00002B40F091807A683B681B789B00134498
:1046AC001B887B847B8C03F48043002B1BD07A68A3
:1046BC003B681B789B0013441B889BB223F4E0439C
:1046CC0023F070033B847A683B681B789B001A4488
:1046DC003B8C43F07F4343F47F0343F4404343F06C
:1046EC0080039BB213807A683B681B789B00134451
:1046FC001B88FB83FB8B03F04003002B1BD07A68D9
:10470C003B681B789B0013441B889BB223F4E0434B
:10471C0023F07003BB837A683B681B789B001A44B8
:10472C00BB8B43F07F4343F47F0343F4004343F0DC
:10473C00C0039BB213807A683B681B789B001344C0
:10474C001B889BB223F4804323F070037B837B8B09
:10475C0083F480537B837B8B83F400537B837A6855
:10476C003B681B789B001A447B8B43F07F4343F4DC
:10477C007F0343F4004343F080039BB213807A68B9
:10478C003B681B789B0013441B889BB223F4E043CB
:10479C0023F040033B837A683B681B789B001A44E8
:1047AC003B8B43F07F4343F47F0343F4004343F0DC
:1047BC0080039BB21380ACE07A683B681B789B004B
:1047CC0013441B88FB82FB8A03F48043002B1BD011
:1047DC007A683B681B789B0013441B889BB223F4BC
:1047EC00E04323F07003BB827A683B681B789B0024
:1047FC001A44BB8A43F07F4343F47F0343F44043A2
:10480C0043F080039BB213807A683B681B789B0053
:10481C0013441B887B827B8A03F04003002B1BD044
:10482C007A683B681B789B0013441B889BB223F46B
:10483C00E04323F070033B827A683B681B789B0053
:10484C001A443B8A43F07F4343F47F0343F4004311
:10485C0043F0C0039BB213803B68DB78012B20D064
:10486C007A683B681B789B0013441B889BB223F42B
:10487C00E04323F04003FB81FB8983F02003FB81A1
:10488C007A683B681B789B001A44FB8943F07F4392
:10489C0043F47F0343F4004343F080039BB2138043
:1048AC001BE07A683B681B789B0013441B889BB207
:1048BC0023F4E04323F04003BB817A683B681B7808
:1048CC009B001A44BB8943F07F4343F47F0343F4BA
:1048DC00004343F080039BB213807A683B681B78DB
:1048EC009B0013441B889BB223F4804323F070037A
:1048FC007B817A683B681B789B001A447B8943F068
:10490C007F4343F47F0343F4004343F080039BB2A3
:10491C00138097F8673018466C37BD4680BC7047DB
:10492C0080B48DB000AF786039603B681B7B002B86
:10493C0040F08E803B685B78002B44D07A683B68F3
:10494C001B789B0013441B88FB85FB8D03F04003F5
:10495C00002B1BD07A683B681B789B0013441B8888
:10496C009BB223F4E04323F07003BB857A683B6869
:10497C001B789B001A44BB8D43F07F4343F47F03A9
:10498C0043F4004343F0C0039BB213807A683B6846
:10499C001B789B0013441B889BB223F4E04323F049
:1049AC0040037B857A683B681B789B001A447B8D9F
:1049BC0043F07F4343F47F0343F4004343F080030D
:1049CC009BB2138092E17A683B681B789B0013447E
:1049DC001B883B853B8D03F48043002B1BD07A68EE
:1049EC003B681B789B0013441B889BB223F4E04369
:1049FC0023F07003FB847A683B681B789B001A4495
:104A0C00FB8C43F07F4343F47F0343F4404343F078
:104A1C0080039BB213807A683B681B789B0013441D
:104A2C001B889BB223F4804323F07003BB847A6809
:104A3C003B681B789B001A44BB8C43F07F4343F4C8
:104A4C007F0343F4004343F080039BB213804DE19A
:104A5C003B685B78002B40F0A5807A683B681B783C
:104A6C009B0013441B887B847B8C03F48043002BBA
:104A7C001BD07A683B681B789B0013441B889BB245
:104A8C0023F4E04323F070033B847A683B681B7883
:104A9C009B001A443B8C43F07F4343F47F0343F465
:104AAC00404343F080039BB213807A683B681B78C9
:104ABC009B0013441B88FB83FB8B03F04003002BF0
:104ACC001BD07A683B681B789B0013441B889BB2F5
:104ADC0023F4E04323F07003BB837A683B681B78B4
:104AEC009B001A44BB8B43F07F4343F47F0343F496
:104AFC00004343F0C0039BB213807A683B681B7879
:104B0C009B0013441B889BB223F4E04323F07003F7
:104B1C007B837A683B681B789B001A447B8B43F041
:104B2C007F4343F47F0343F4004343F0C0039BB241
:104B3C0013807A683B681B789B0013441B889BB2DC
:104B4C0023F4804323F070033B837A683B681B7823
:104B5C009B001A443B8B43F07F4343F47F0343F4A5
:104B6C00004343F080039BB213807A683B681B7848
:104B7C009B0013441B889BB223F4E04323F04003B7
:104B8C00FB827A683B681B789B001A44FB8A43F0D3
:104B9C007F4343F47F0343F4004343F080039BB211
:104BAC001380A3E07A683B681B789B0013441B8836
:104BBC00BB82BB8A03F48043002B1BD07A683B6812
:104BCC001B789B0013441B889BB223F4E04323F017
:104BDC0070037B827A683B681B789B001A447B8A43
:104BEC0043F07F4343F47F0343F4404343F080039B
:104BFC009BB213807A683B681B789B0013441B881C
:104C0C003B823B8A03F04003002B1BD07A683B6845
:104C1C001B789B0013441B889BB223F4E04323F0C6
:104C2C007003FB817A683B681B789B001A44FB89F4
:104C3C0043F07F4343F47F0343F4004343F0C0034A
:104C4C009BB213807A683B681B789B0013441B88CB
:104C5C009BB223F4E04323F07003BB817A683B687A
:104C6C001B789B001A44BB8943F07F4343F47F03BA
:104C7C0043F4404343F080039BB213807A683B6853
:104C8C001B789B0013441B889BB223F4E04323F056
:104C9C0040037B817A683B681B789B001A447B89B4
:104CAC0043F07F4343F47F0343F4004343F080031A
:104CBC009BB213807A683B681B789B0013441B885B
:104CCC009BB223F4804323F070033B817A683B68EA
:104CDC001B789B001A443B8943F07F4343F47F03CA
:104CEC0043F4004343F080039BB213800023184627
:104CFC003437BD4680BC704780B5CEB000AF3B1D8D
:104D0C0018603B4619603B461B685B78012B40F0F2
:104D1C003E873B461B689A693B461B681B699A4257
:104D2C0005D93B461B681B69C7F8343104E03B4688
:104D3C001B689B69C7F834313B461B681B7B002BF7
:104D4C002ED13B461B6859693B461B68DA88D7F85D
:104D5C0034319BB2381D006801F013FC3B1D1B68FD
:104D6C00C7F8AC303B1D1B68B3F850309BB21A46E9
:104D7C00D7F8AC301344C7F8AC303B461B681B78F3
:104D8C001A01D7F8AC30134403F20443C7F8A83027
:104D9C00D7F834319AB2D7F8A8301A8000F0C2BED6
:104DAC003B461B68DB78022B40F06A833B461B6852
:104DBC001A6A3B461B681B699A4240F20E833B1DE4
:104DCC001A683B461B681B789B0013441B889BB2DC
:104DDC0023F4E04323F07003A7F8A6303B1D1A68B8
:104DEC003B461B681B789B001A44B7F8A63043F06F
:104DFC007F4343F47F0343F4014343F080039BB2AE
:104E0C0013803B461B681A6AD7F83431D21A3B46DA
:104E1C001B681A623B1D1A683B461B681B789B007B
:104E2C0013441B889BB203F04003002B00F07C81E1
:104E3C003B1D1B68C7F8A0303B461B685B78002BFA
:104E4C006FD13B1D1B68C7F89C303B1D1B68B3F82A
:104E5C0050309BB21A46D7F89C301344C7F89C309C
:104E6C003B461B681B781A01D7F89C30134403F29D
:104E7C000C43C7F89830D7F83431002B16D1D7F83B
:104E8C0098301B889BB223F4F8439AB2D7F8983029
:104E9C001A80D7F898301B889BB26FEA43436FEAAD
:104EAC0053439AB2D7F898301A805BE0D7F8343174
:104EBC003E2B18D8D7F834315B08C7F83031D7F807
:104ECC00343103F00103002B04D0D7F83031013317
:104EDC00C7F83031D7F830319BB29B029AB2D7F871
:104EEC0098301A803EE0D7F834315B09C7F830317E
:104EFC00D7F8343103F01F03002B04D1D7F830312D
:104F0C00013BC7F83031D7F830319BB29B029BB2D2
:104F1C006FEA43436FEA53439AB2D7F898301A803A
:104F2C0020E03B461B685B78012B1BD13B1D1B68AB
:104F3C00B3F850309BB21A46D7F8A0301344C7F8D8
:104F4C00A0303B461B681B781A01D7F8A0301344DD
:104F5C0003F20C43C7F89430D7F834319AB2D7F82F
:104F6C0094301A803B461B685B89A7F892303B460D
:104F7C001B685969D7F834319BB2B7F89220381DA9
:104F8C00006801F0FEFA3B461B685A69D7F83431C9
:104F9C001A443B461B685A613B461B681A6A3B46DF
:104FAC001B681B699A4209D93B461B681A6AD7F8D9
:104FBC003431D21A3B461B681A6208E03B461B6828
:104FCC001B6AC7F834313B461B6800221A623B4609
:104FDC001B685B78002B6FD13B1D1B68C7F88C30AE
:104FEC003B1D1B68B3F850309BB21A46D7F88C3077
:104FFC001344C7F88C303B461B681B781A01D7F852
:10500C008C30134403F20443C7F88830D7F834319A
:10501C00002B16D1D7F888301B889BB223F4F843A9
:10502C009AB2D7F888301A80D7F888301B889BB290
:10503C006FEA43436FEA53439AB2D7F888301A8029
:10504C005FE0D7F834313E2B18D8D7F834315B08F1
:10505C00C7F82C31D7F8343103F00103002B04D0FE
:10506C00D7F82C310133C7F82C31D7F82C319BB23F
:10507C009B029AB2D7F888301A8042E0D7F83431C4
:10508C005B09C7F82C31D7F8343103F01F03002B20
:10509C0004D1D7F82C31013BC7F82C31D7F82C317F
:1050AC009BB29B029BB26FEA43436FEA53439AB2A3
:1050BC00D7F888301A8024E03B461B685B78012BBC
:1050CC001FD13B1D1B68C7F884303B1D1B68B3F810
:1050DC0050309BB21A46D7F884301344C7F884304A
:1050EC003B461B681B781A01D7F88430134403F233
:1050FC000443C7F88030D7F834319AB2D7F88030EF
:10510C001A803B461B681B89A7F892303B461B68EC
:10511C005969D7F834319BB2B7F89220381D006822
:10512C0001F02FFA00F0FEBC3B461B685B78002BAD
:10513C0064D13B1D1B68FB673B1D1B68B3F85030EB
:10514C009BB21A46FB6F1344FB673B461B681B78EC
:10515C001A01FB6F134403F20443BB67D7F83431D5
:10516C00002B12D1BB6F1B889BB223F4F8439AB26D
:10517C00BB6F1A80BB6F1B889BB26FEA43436FEA0D
:10518C0053439AB2BB6F1A8057E0D7F834313E2B99
:10519C0017D8D7F834315B08C7F82831D7F8343131
:1051AC0003F00103002B04D0D7F828310133C7F8E2
:1051BC002831D7F828319BB29B029AB2BB6F1A8068
:1051CC003BE0D7F834315B09C7F82831D7F83431D4
:1051DC0003F01F03002B04D1D7F82831013BC7F88B
:1051EC002831D7F828319BB29B029BB26FEA43431C
:1051FC006FEA53439AB2BB6F1A801EE03B461B68A2
:10520C005B78012B19D13B1D1B687B673B1D1B6811
:10521C00B3F850309BB21A467B6F13447B673B4606
:10522C001B681B781A017B6F134403F204433B6722
:10523C00D7F834319AB23B6F1A803B461B681B89F6
:10524C00A7F892303B461B685969D7F834319BB2AA
:10525C00B7F89220381D006801F093F93B461B68A3
:10526C005A69D7F834311A443B461B685A613B469D
:10527C001B681A6A3B461B681B699A4209D93B4654
:10528C001B681A6AD7F83431D21A3B461B681A626B
:10529C0008E03B461B681B6AC7F834313B461B6869
:1052AC0000221A623B1D1B68FB663B461B685B7841
:1052BC00002B64D13B1D1B68BB663B1D1B68B3F800
:1052CC0050309BB21A46BB6E1344BB663B461B6800
:1052DC001B781A01BB6E134403F20C437B66D7F8A0
:1052EC003431002B12D17B6E1B889BB223F4F84314
:1052FC009AB27B6E1A807B6E1B889BB26FEA43431B
:10530C006FEA53439AB27B6E1A8054E0D7F834316B
:10531C003E2B17D8D7F834315B08C7F82431D7F8AF
:10532C00343103F00103002B04D0D7F824310133BE
:10533C00C7F82431D7F824319BB29B029AB27B6E0A
:10534C001A8038E0D7F834315B09C7F82431D7F824
:10535C00343103F01F03002B04D1D7F82431013B67
:10536C00C7F82431D7F824319BB29B029BB26FEA69
:10537C0043436FEA53439AB27B6E1A801BE03B4661
:10538C001B685B78012B16D13B1D1B68B3F85030A2
:10539C009BB21A46FB6E1344FB663B461B681B789C
:1053AC001A01FB6E134403F20C433B66D7F83431FD
:1053BC009AB23B6E1A803B461B685B89A7F8923009
:1053CC003B461B685969D7F834319BB2B7F8922029
:1053DC00381D006801F0D5F8A4E33B461B681B6A36
:1053EC00C7F834313B1D1A683B461B681B789B0081
:1053FC0013441B889BB223F4E24323F07003A7F8F9
:10540C005E303B1D1A683B461B681B789B001A4498
:10541C00B7F85E3043F07F4343F47F0343F400431B
:10542C0043F080039BB213803B1D1B68BB653B1D87
:10543C001B68B3F850309BB21A46BB6D1344BB6566
:10544C003B461B681B781A01BB6D134403F20443E3
:10545C007B65D7F834319AB27B6D1A803B461B685A
:10546C001B89A7F892303B461B685969D7F8343131
:10547C009BB2B7F89220381D006801F082F851E316
:10548C003B1D1A683B461B681B789B0013441B880A
:10549C009BB223F4E04323F07003A7F852303B1D7A
:1054AC001A683B461B681B789B001A44B7F85230AD
:1054BC0043F07F4343F47F0343F4014343F0800301
:1054CC009BB213803B461B681A6AD7F83431D21A48
:1054DC003B461B681A623B1D1A683B461B681B78CF
:1054EC009B0013441B889BB203F04003002B00F07D
:1054FC0078813B1D1B68FB643B461B685B78002B6B
:10550C0064D13B1D1B68BB643B1D1B68B3F850305A
:10551C009BB21A46BB6C1344BB643B461B681B789E
:10552C001A01BB6C134403F20C437B64D7F834317F
:10553C00002B12D17B6C1B889BB223F4F8439AB2DC
:10554C007B6C1A807B6C1B889BB26FEA43436FEABF
:10555C0053439AB27B6C1A8054E0D7F834313E2B0B
:10556C0017D8D7F834315B08C7F82031D7F8343165
:10557C0003F00103002B04D0D7F820310133C7F816
:10558C002031D7F820319BB29B029AB27B6C1A80E7
:10559C0038E0D7F834315B09C7F82031D7F834310B
:1055AC0003F01F03002B04D1D7F82031013BC7F8BF
:1055BC002031D7F820319BB29B029BB26FEA434358
:1055CC006FEA53439AB27B6C1A801BE03B461B6814
:1055DC005B78012B16D13B1D1B68B3F850309BB286
:1055EC001A46FB6C1344FB643B461B681B781A0180
:1055FC00FB6C134403F20C433B64D7F834319AB27E
:10560C003B6C1A803B461B685B89A7F892303B4683
:10561C001B685969D7F834319BB2B7F89220381D02
:10562C00006800F0AEFF3B461B685A69D7F834316E
:10563C001A443B461B685A613B461B681A6A3B4638
:10564C001B681B699A4209D93B461B681A6AD7F832
:10565C003431D21A3B461B681A6208E03B461B6881
:10566C001B6AC7F834313B461B6800221A62D7F814
:10567C003431002B00F056823B461B685B78002BC4
:10568C0072D13B1D1B68FB633B1D1B68B3F850308C
:10569C009BB21A46FB6B1344FB633B461B681B789F
:1056AC001A01FB6B134403F2044207F138031A602E
:1056BC00D7F83431002B1AD107F138031B681B883B
:1056CC009BB223F4F8439AB207F138031B681A8093
:1056DC0007F138031B681B889BB26FEA43436FEAE0
:1056EC0053439AB207F138031B681A8067E0D7F866
:1056FC0034313E2B19D8D7F834315B08C7F81C313C
:10570C00D7F8343103F00103002B04D0D7F81C3147
:10571C000133C7F81C31D7F81C319BB29B029AB2EB
:10572C0007F138031B681A8049E0D7F834315B095C
:10573C00C7F81C31D7F8343103F01F03002B04D108
:10574C00D7F81C31013BC7F81C31D7F81C319BB280
:10575C009B029BB26FEA43436FEA53439AB207F141
:10576C0038031B681A802AE03B461B685B78012BC8
:10577C0025D107F134033A1D12681A603B1D1B68D2
:10578C00B3F850309BB2194607F1340307F13402D9
:10579C0012680A441A603B461B681B781A0107F111
:1057AC0034031B68134403F2044207F130031A60FC
:1057BC00D7F834319AB207F130031B681A803B4694
:1057CC001B681B89A7F892303B461B685969D7F8B0
:1057DC0034319BB2B7F89220381D006800F0D1FE2E
:1057EC00A0E13B461B685B78002B7AD107F12C03B8
:1057FC003A1D12681A603B1D1B68B3F850309BB2FF
:10580C00194607F12C0307F12C0212680A441A609E
:10581C003B461B681B781A0107F12C031B681344C9
:10582C0003F2044207F128031A60D7F83431002B35
:10583C001AD107F128031B681B889BB223F4F84389
:10584C009AB207F128031B681A8007F128031B681A
:10585C001B889BB26FEA43436FEA53439AB207F13A
:10586C0028031B681A8067E0D7F834313E2B19D80F
:10587C00D7F834315B08C7F81831D7F8343103F056
:10588C000103002B04D0D7F818310133C7F81831B5
:10589C00D7F818319BB29B029AB207F128031B6808
:1058AC001A8049E0D7F834315B09C7F81831D7F8BA
:1058BC00343103F01F03002B04D1D7F81831013B0E
:1058CC00C7F81831D7F818319BB29B029BB26FEA1C
:1058DC0043436FEA53439AB207F128031B681A80BB
:1058EC002AE03B461B685B78012B25D107F124038A
:1058FC003A1D12681A603B1D1B68B3F850309BB2FE
:10590C00194607F1240307F1240212680A441A60AD
:10591C003B461B681B781A0107F124031B681344D0
:10592C0003F2044207F120031A60D7F834319AB21B
:10593C0007F120031B681A803B461B681B89A7F8DC
:10594C0092303B461B685969D7F834319BB2B7F893
:10595C009220381D006800F014FE3B461B685A6903
:10596C00D7F834311A443B461B685A613B461B68D6
:10597C001A6A3B461B681B699A4209D93B461B684D
:10598C001A6AD7F83431D21A3B461B681A6208E0FF
:10599C003B461B681B6AC7F834313B461B68002228
:1059AC001A62D7F83431002B00F0BC8007F11C03CD
:1059BC003A1D12681A603B461B685B78002B7AD143
:1059CC0007F118033A1D12681A603B1D1B68B3F8E7
:1059DC0050309BB2194607F1180307F118021268F0
:1059EC000A441A603B461B681B781A0107F118031E
:1059FC001B68134403F20C4207F114031A60D7F826
:105A0C003431002B1AD107F114031B681B889BB28D
:105A1C0023F4F8439AB207F114031B681A8007F1B8
:105A2C0014031B681B889BB26FEA43436FEA534312
:105A3C009AB207F114031B681A8062E0D7F834316C
:105A4C003E2B19D8D7F834315B08C7F81431D7F886
:105A5C00343103F00103002B04D0D7F81431013397
:105A6C00C7F81431D7F814319BB29B029AB207F1E4
:105A7C0014031B681A8044E0D7F834315B09C7F86B
:105A8C001431D7F8343103F01F03002B04D1D7F8AD
:105A9C001431013BC7F81431D7F814319BB29B0277
:105AAC009BB26FEA43436FEA53439AB207F1140374
:105ABC001B681A8025E03B461B685B78012B20D1C4
:105ACC003B1D1B68B3F850309BB2194607F11C0301
