:100000000C9434000C9446000C9446000C9446006A
:100010000C9446000C9446000C9446000C9480010D
:100020000C9446000C9446000C9446000C94460038
:100030000C9446000C9446000C9446000C94460028
:100040000C9446000C9446000C9446000C94460018
:100050000C9446000C9446000C9446000C94460008
:100060000C9446000C94460011241FBECFEFD8E03C
:10007000DEBFCDBF21E0A0E0B1E001C01D92AE37F0
:10008000B207E1F70E9486020C9498020C940000DB
:1000900082E08093B00094E09093B1001092B2009F
:1000A0009AEF9093B300809370000895089580E0D4
:1000B0000BC0E82FF0E0EE0FFF1FEC5AFE4F26E5D5
:1000C00030E0318320838F5F853199F780E00FC066
:1000D000E82FF0E0EE0FFF1FEE0FFF1FE050FF4F85
:1000E00026E530E031832083138212828F5F8531D1
:1000F00079F70895DC010FB607FE0AC0F89461E0B5
:1001000008C09F5F953131F46623D1F0789408954B
:1001100060E090E0292F30E0F901EE0FFF1FEC5A6C
:10012000FE4F408151814655504059F7220F331FF1
:10013000F901EC5AFE4FB183A083662309F078944D
:100140000895DC010FB607FE03C0F89481E001C0FA
:1001500080E090E01CC0292F30E0F901EE0FFF1F76
:10016000EE0FFF1FE050FF4F408151814A175B07A0
:1001700069F4220F331F220F331FF901E050FF4FA4
:1001800073836283882339F1789408959F5F953152
:1001900011F790E01EC0292F30E0F901EE0FFF1F8C
:1001A000EE0FFF1FE050FF4F4081518146555040F8
:1001B00079F4220F331F220F331FF901E050FF4F54
:1001C000B183A08373836283882329F07894089590
:1001D0009F5F953101F70895F894E0915401F091F3
:1001E000550180E0E635F807B1F478940895822F40
:1001F00090E0DC011196AA0FBB1FAC5ABE4F4D9187
:100200005C91880F991FDC01AC5ABE4F11965C932C
:100210004E932F5F01C020E0243149F786E590E03E
:1002200090937D0180937C017894099508951F93A4
:10023000CF93DF9310E037C0812F90E0FC01EE0FE9
:10024000FF1FEE0FFF1FE050FF4F20813181265529
:10025000304041F1FC01EE0FFF1FEE0FFF1FE05099
:10026000FF4F228133812130310569F0880F991FBA
:10027000880F991FFC01E050FF4F82819381019705
:10028000938382830FC0880F991F880F991FEC01F9
:10029000C050DF4F888199810E947A0086E590E006
:1002A000998388831F5F153139F6DF91CF911F91B4
:1002B000089584B1806284B985B18F7D85B98AB192
:1002C00081608AB98BB18E7F8BB9089585B18F7D9E
:1002D00085B98BB181608BB964E670E083E791E00A
:1002E0000E94A100089585B1806285B98BB18E7F8F
:1002F0008BB964EF71E086E691E00E94A100089559
:100300001F920F920FB60F9211242F933F934F938A
:100310005F936F937F938F939F93AF93BF93EF936D
:10032000FF930E941701FF91EF91BF91AF919F91B1
:100330008F917F916F915F914F913F912F910F908E
:100340000FBE0F901F90189585B18F7D85B98BB129
:100350008E7F8BB92FEF8AED9AE12150804090403B
:10036000E1F700C0000085B1806285B98BB1816082
:100370008BB92FEF85EA9EE0215080409040E1F755
:1003800000C0000085B1806285B98BB18E7F8BB9CA
:100390002FEF83EC99E0215080409040E1F700C0BE
:1003A000000085B18F7D85B98BB181608BB92FEF4E
:1003B00085EA9EE0215080409040E1F700C00000B7
:1003C00085B1806285B98BB18E7F8BB92FEF8EE9B5
:1003D00094E2215080409040E1F700C0000085B1D8
:1003E0008F7D85B98BB181608BB92FEF83ED90E361
:1003F000215080409040E1F700C0000085B180624C
:1004000085B98BB18E7F8BB92FEF81EE94E02150AF
:1004100080409040E1F700C0000085B18F7D85B934
:100420008BB181608BB92FEF83ED90E32150804039
:100430009040E1F700C0000085B1806285B98BB1C2
:100440008E7F8BB92FEF89E698E121508040904054
:10045000E1F700C0000085B18F7D85B98BB1816067
:100460008BB92FEF83ED90E3215080409040E1F76E
:1004700000C0000085B1806285B98BB18E7F8BB9D9
:100480002FEF8DE292E2215080409040E1F700C0D2
:10049000000085B18F7D85B98BB18E7F8BB92FEF31
:1004A00081EE94E0215080409040E1F700C00000D0
:1004B00085B1806285B98BB181608BB92FEF81EEF8
:1004C00094E0215080409040E1F700C0000085B1E9
:1004D0008F7D85B98BB18E7F8BB92FEF89E698E13F
:1004E000215080409040E1F700C0000085B180625B
:1004F00085B98BB181608BB92FEF82E597E02150F0
:1005000080409040E1F700C0000008950E9459012A
:100510000E94A4010E9457000E94480061E070E020
:1005200086E691E00E94A100A8950E94EC00FCCF15
:04053000F894FFCF6D
:00000001FF
